:1000000019C028C027C026C025C024C023C022C0D4
:1000100021C020C01FC01EC01DC01CC01BC01AC0F4
:1000200019C018C017C00BC118C12EC106C153C1D9
:1000300060C1F0C111241FBECFE5D4E0DEBFCDBF4B
:1000400020E0A0E6B0E001C01D92AD3BB207E1F7B1
:1000500086D0B5C2D5CFFF920F931F93CF93DF9376
:10006000CFB7F894E199FECF8B0123E0FB012093F9
:100070005700E89507B600FCFDCF9A01205C3F4F82
:10008000DA01D1E0A8014A1B5B0BFC90FA01EA0FF0
:10009000FB1F11961C911197012F10E0102F0027C4
:1000A0000F0D111D0801D0935700E89511241296E9
:1000B0002A173B0751F725E0FB0120935700E895ED
:1000C00007B600FCFDCF81E180935700E895789456
:1000D000CFBFDF91CF911F910F91FF900895FC0149
:1000E000808190ED980F9A3060F09FEB980F9630DA
:1000F00020F09FE9980F963038F48295807F8057E2
:1001000004C08295807F01C080E0918120ED290F9D
:100110002A3070F02FEB290F263038F02FE9290F05
:10012000263040F4890F87550895890F8753089525
:10013000890F805308950F931F93CF938C01CFDFC6
:10014000C82FC8010296CBDF2C2F30E0322F222798
:10015000A901482BCA01CF911F910F9108956F9269
:100160007F928F929F92AF92BF92CF92DF92EF9247
:10017000FF920F931F93CF93DF931F92CDB7DEB7FC
:100180008BB7982F91609BBF82608BBF81B3806CCF
:1001900081BB82B3806C82BB879981C186997FC104
:1001A000A0D10CE210E0C801F5D197D10F5F1F4F2D
:1001B00020E008341207B9F740E450E06FEF70E038
:1001C00080E690E0E0D1F12C97E1C92E90E0D92EA5
:1001D0002CE2A22E20E0B22E30E4E32E4CE0842E5E
:1001E00040E0942EF1100BC002E210E0C801D2D121
:1001F00074D10F5F1F4FA016B106C1F711C00CE0FC
:1002000010E0C801C7D169D10F5F1F4FC016D106DA
:10021000C1F706C08FE461D18AE05FD18DE05DD186
:1002200011E01982812F90E0FC013297E730F1054F
:1002300008F0F5C0ED5EFF4F099410E037C05BD1C8
:1002400040E062E083EA90E073D157D183EA90E026
:1002500046DF8093A80013E0E4CF4DD140E064E096
:1002600083EA90E065D149D183EA90E064DF90931E
:10027000AA008093A9002091A0002111DDC09093D5
:10028000A2008093A100D8C036D140E062E083EAAA
:1002900090E04ED132D183EA90E021DF8093AB0031
:1002A0008091A8008111CAC016E0BBCF8091A80040
:1002B0001817D0F720D140E062E083EA90E038D10F
:1002C0001CD183EA90E00BDFE12FF0E0E855FF4F0F
:1002D00084831F5FEBCF0FD140E062E083EA90E0C0
:1002E00027D10BD183EA90E0FADE8093BC0017E0BF
:1002F00098CFF11070C000E09091A8008091A0000C
:100300000917B0F48034A8F48EE2E7D0E091A000A1
:1003100081E08E0F8093A000F0E0E05AFF4FA02F05
:10032000B0E0A855BF4F14968C9180830F5FE4CF47
:1003300000E09091AB00913041F49091BC009F3F60
:1003400021F48111E092A00010E08091A00080349F
:10035000E0F180E5C2D08AE0C0D08DE0BED06091EF
:10036000A1007091A20080E090E040E650E073DED2
:1003700040E450E06FEF70E080E690E004D110922E
:10038000A000002311F18091A8000817A0F48EE2CC
:10039000A4D0E091A00081E08E0F8093A000F0E057
:1003A000E05AFF4FA02FB0E0A855BF4F14968C9194
:1003B00080830F5FE8CF8091A1009091A200805CC4
:1003C0009F4F9093A2008093A10081E0111101C082
:1003D00080E0182F37C08091AB00813021F48091EC
:1003E000BC008F3F89F110E08091A800181708F039
:1003F00011CF8EE272D0812F90E0FC01E855FF4FC3
:100400002091A9003091AA006481820F931FCAD065
:100410001F5FEACF81E261D08FEF9FEF4BC06BD0BF
:1004200060E0CE0101966BD0882361F089818A3328
:1004300039F0813739F408C014E0F3CE15E0F1CE7D
:1004400012E0EFCE1111EDCEF1101EC087E1682E43
:1004500080E0782E02E210E0C3019CD03ED08FEF06
:10046000681A780A06151705B9F7F39492E0F9129D
:10047000B9CEEFEFF7EA21E6E150F0402040E1F796
:1004800000C0000027D00BC000E010E0C80182D0FF
:1004900024D00F5F1F4F80169106C1F7E6CF8BB7B0
:1004A000982F91609BBF8D7F8BBFE0E0F0E00995B6
:1004B00080E090E00F90DF91CF911F910F91FF901E
:1004C000EF90DF90CF90BF90AF909F908F907F90F4
:1004D0006F90089587EE8AB908955D9BFECF8CB921
:1004E000089510BC87E689B9599886E880BD88E1EF
:1004F0008AB980E0F2CF81E1F0CF83E1EECFFC0159
:100500005F9B0CC05C990CC05B990CC05A990CC0E5
:100510008CB18083613051F4E0DF08C080E0089541
:1005200081E0089582E0089583E008958FEF0895B3
:10053000DF92EF92FF920F931F93CF93DF931F925F
:10054000CDB7DEB78C01D42E7C01E60EF11C0E1562
:100550001F0579F06D2DCE010196D1DF9FEF980F29
:100560009E3F40F08F3FB1F78981F80181938F0161
:10057000EECF8FEF0F90DF91CF911F910F91FF90F2
:10058000EF90DF900895DC0101C06D934150504021
:10059000E0F70895E199FECF9FBB8EBBE09A9927C3
:1005A0008DB30895262FE199FECF9FBB8EBB2DBB47
:1005B0000FB6F894E29AE19A0FBE01960895F89466
:0205C000FFCF6B
:00000001FF
