:1000000012C02CC02BC02AC029C028C066C370C330
:1000100055C324C023C022C021C020C01FC01EC0A1
:100020001DC01CC01BC011241FBECFE5D4E0DEBF25
:10003000CDBF11E0A0E6B0E0EAE8FEE002C0059026
:100040000D92AE35B107D9F721E0AEE5B1E001C0C0
:100050001D92AC3CB207E1F756D315C7D1CF80E46F
:1000600087B986E086B9089597B1907F8170892B12
:1000700087B9089586B1806C86B9369B02C00000AE
:10008000FCCF84B125B190E0922B0895CF92DF92FE
:10009000EF92FF920F931F93CF93DF93D82FC0E07F
:1000A000C12CD12C7601082F10E0CD1779F0E2DFBA
:1000B000B80147D680E090E053D59B01AC01C70161
:1000C000B60151D46B017C01CF5FEFCFC701B60100
:1000D0001BD5CB01DF91CF911F910F91FF90EF9036
:1000E000DF90CF900895CF93DF9300D01F92CDB7CC
:1000F000DEB781E08B838A838983FED160E088E666
:1001000013D280E037D2F8D161E088E60DD2CE017B
:10011000039646D2CE01029643D2CE01019640D23A
:1001200000D28981E9E6F0E0982F907392959F7054
:10013000905D90838F70805D81832AE322838A8122
:10014000982F907792959F70905D93838F70805DCC
:10015000848325838B81982F92959F70905D9683E1
:100160008F70805D87831086CF010F900F900F9066
:10017000DF91CF910895CF93DF9300D01F92CDB739
:10018000DEB781E08B838A838983B6D160E088E61D
:10019000CBD184E0EFD1B0D161E088E6C5D1CE010A
:1001A0000396FED1CE010296FBD1CE010196F8D185
:1001B000B8D18B81E0E6F0E0982F907392959F7014
:1001C000905D90838F70805D81832FE222838A818E
:1001D00084FB992790F9905D93838F70805D848371
:1001E00025838981982F92959F70905D96838F705B
:1001F000805D87831086CF010F900F900F90DF9165
:10020000CF910895EF92FF920F931F93CF93DF93B7
:10021000CDB7DEB70DB71EB72FEF260F2336C0F4CC
:10022000462F50E02DB73EB7241B350B0FB6F89480
:100230003EBF0FBE2DBF2F5F3F4F7901BC01C901EB
:100240000AD6C701EBD10FB6F8941EBF0FBE0DBF83
:100250000FB6F8941EBF0FBE0DBFDF91CF911F9157
:100260000F91FF90EF900895C49A8AE18A95F1F773
:1002700000C0C4988AE18A95F1F700C0089598B348
:10028000907F98BB87FDC09A86FDC19A85FDC29A72
:1002900084FDC39AE9CFCF93C82FC598F0DF8C2F88
:1002A0008295807FECDF80EE8A95F1F7CF910895FB
:1002B000CF93C82FC59AE3DF8C2F8295807FDFDF35
:1002C00080EE8A95F1F7CF910895CF93DF93EC01FB
:1002D0008991882311F0ECDFFBCFDF91CF91089556
:1002E00081E0D9DF8FE39FE10197F1F700C00000C3
:1002F000089587B3806387BB87B38F6087BB88B35C
:100300008F7C88BB88B3807F88BB8FE59AEE01978E
:10031000F1F700C0000081E0B2DF8FE39FE10197B9
:10032000F1F700C0000080E2AADF90EE9A95F1F7A5
:1003300088E2B1DF8CE0AFDF86E0ADDFD1CF82E0D5
:10034000AADF8FE39FE10197F1F700C00000089555
:10035000613041F028F0623039F0633039F00895AF
:10036000805805C0805403C0805601C0805393CF8D
:100370000F931F93CF93DF938830A0F48B01880FE6
:10038000880F880F805C87DFE801085F1F4F899125
:100390008FDFC017D107D9F780E8DF91CF911F9188
:1003A0000F9179CFDF91CF911F910F910895FF9217
:1003B0000F931F93CF93DF93CDB7DEB72C970FB674
:1003C000F894DEBF0FBECDBF442369F1022F242F66
:1003D00030E0AE014F5F5F4FEAD4002309F1FE0128
:1003E000319680E09191992319F08F5F8C30D1F78D
:1003F000801768F4F12C10E0081B11098F2D90E094
:10040000801791076CF480E253DFF394F7CF08175D
:1004100038F4E1E0F0E0EC0FFD1FE00FF11D108279
:10042000CE01019652DF2C960FB6F894DEBF0FBEB8
:10043000CDBFDF91CF911F910F91FF900895FF9253
:100440000F931F93CF93DF93CDB7DEB72C970FB6E3
:10045000F894DEBF0FBECDBF442369F1022F242FD5
:1004600030E0AE014F5F5F4F8AD4002309F1FE01F7
:10047000319680E09191992319F08F5F8C30D1F7FC
:10048000801768F4F12C10E0081B11098F2D90E003
:10049000801791076CF480E20BDFF394F7CF081715
:1004A00038F4E1E0F0E0EC0FFD1FE00FF11D1082E9
:1004B000CE0101960ADF2C960FB6F894DEBF0FBE70
:1004C000CDBFDF91CF911F910F91FF90089581B122
:1004D00096B796959270887F892B089594ED92B97E
:1004E000811106C08CE080B911B884E486BF03C0D6
:1004F0008CE080B911B8EBCF84EA86BF06B607FC62
:1005000002C00000FBCF81B1887F883041F091B1FB
:10051000987F81E0903109F480E08195089580E032
:10052000089584E186BF0895880F6170862B83B992
:1005300084E886BF06B607FC02C00000FBCF862F0A
:1005400061110AC091B1987F903299F091B1987F72
:1005500081E0983159F409C081B1887F803441F03D
:1005600091B1987F81E0983309F480E081950895F6
:1005700080E0089583B984EC86BF06B607FC02C00C
:100580000000FBCF81B1887F803341F091B1987F2B
:1005900081E0983209F480E08195089580E0089523
:1005A000FC0120812130B1F424EC26BF06B607FC03
:1005B00002C00000FBCF23B1FC01208381B1887F02
:1005C000803551F091B1987F81E0983409F480E052
:1005D000819508958FEF089580E00895811102C0FC
:1005E000959A0895959808955D9BFECF8CB90895CE
:1005F00082E08BB910BC80ED89B986E880BD88E1C6
:100600008AB98D9A8C98949A81E0E8DF80E0ECDFDB
:100610008DE0EADF8AE0E8DF8AE0E6CFCF93DF9380
:10062000EC018991882311F0DFDFFBCFDF91CF91BF
:1006300008958DE0D9DF8AE0D7CFEF92FF920F9334
:100640001F93CF93DF9300D000D0CDB7DEB7962FA6
:100650009F70082F10E09230D1F4607F19F082E78C
:1006600090E0DCDF87E0E82EF12CC8010E2C02C000
:10067000959587950A94E2F780FF02C081E301C057
:1006800080E3B2DF81E0E81AF10878F709C04AE0B8
:10069000BE016F5F7F4FC80168D3CE010196BEDFF8
:1006A000C8DF0F900F900F900F90DF91CF911F91A7
:1006B0000F91FF90EF900895BCDFBBCF1F920F9278
:1006C0000FB60F9211248F9385B3837F85BB8F91D3
:1006D0000F900FBE0F901F9018951F920F920FB69C
:1006E0000F921124AA9A0F900FBE0F901F90189589
:1006F0001F920F920FB60F921124AB9A0F900FBE5C
:100700000F901F90189574DF81E068DF62E385E148
:1007100090E078DD62E380E090E074DD85E790E0D2
:100720007DDFCADF8FE690E0A6D38093CB018CE615
:1007300090E0A1D38093CA018DE690E09CD3809392
:10074000C9018EE690E097D38093C80187E890E0D6
:1007500065DF62E08091CB0170DF8FE890E05EDFC3
:100760006AE08091CA0169DF81E08FBD89E08EBDBA
:100770008091C9018ABD8091C80188BD8CE189BF83
:10078000789489E990E04ADF6AE08091C90155DFF9
:1007900084EA90E043DF6AE08091C8014EDF84B3D1
:1007A0008C6084BB85B38C6085BB80EB90E036DFCA
:1007B00040DF81B38F7381BB82B3806C82BB8BECD3
:1007C00090E02CDF36DF4BDC81EF90E027DF31DF7C
:1007D00081E084DE81E191E021DF2BDF8ADD86E2AA
:1007E00091E01CDF26DF0CE210E0C0E048E050E0C2
:1007F000B80184E691E02FD364E671E08C2FB8DD78
:1008000084E6E82E81E0F82E89E0EEDE62E0F70172
:1008100081917F0112DFFCE6EF16F1E0FF06A1F700
:1008200008DFCF5F085F1F4FC83001F702DF80E0AD
:100830001BDC8AE02BDC2091CA01EC01C20FD11D28
:1008400081E012DC8AE022DC8C018091CB0168011E
:10085000E12CF12C80FF15C0C701B60181D120E049
:1008600030E040E350E4E3D09B01AC0160E070E095
:100870008AE593E477D043D177FF02C061E070E06E
:1008800068BDBE01DD0F880B990B6CD120E030E410
:100890004CE950E4F3D120E030E04AEF53E462D079
:1008A00020E030E040E251E4C2D029D12B013C01EC
:1008B0001ADC5C0160DCEC0142DDC50106DD80E292
:1008C000F7DCB201052C000C880B990B23E04AE001
:1008D000B6DD80E0EDDC61E080E03ADDCE01F5DC04
:1008E00080E2E6DC24E04AE0C701B60160DD8091E9
:1008F000620190916301C39758F18DE075DE8CE33E
:1009000091E08CDEC5018ADE89E06EDECE0186DEF6
:1009100089E06ADE4AE06EE571E0C20126D284E435
:1009200091E07CDE8EE591E079DE89E05DDE4AE0F3
:100930006EE571E0C80119D282E591E06FDE8EE5C7
:1009400091E06CDE80E250DE109263011092620151
:10095000809162019091630101969093630180936D
:10096000620165CF5058BB27AA270ED04DC13ED19A
:1009700030F043D120F031F49F3F11F41EF433C125
:100980000EF4E095E7FB29C1E92F4FD180F3BA17A8
:10099000620773078407950718F071F49EF567C125
:1009A0000EF4E0950B2EBA2FA02D0B01B90190018A
:1009B0000C01CA01A0011124FF27591B99F0593FCE
:1009C00050F4503E68F11A16F040A22F232F342F16
:1009D0004427585FF3CF469537952795A795F04064
:1009E0005395C9F77EF41F16BA0B620B730B840B79
:1009F000BAF09150A1F0FF0FBB1F661F771F881F31
:100A0000C2F70EC0BA0F621F731F841F48F4879588
:100A100077956795B795F7959E3F08F0B3CF939577
:100A2000880F08F09927EE0F9795879508950CD0B9
:100A3000EBC0E3D040F0DAD030F021F45F3F19F0A2
:100A4000CCC0511115C1CFC0F0D098F39923C9F390
:100A50005523B1F3951B550BBB27AA2762177307C4
:100A6000840738F09F5F5F4F220F331F441FAA1F78
:100A7000A9F333D00E2E3AF0E0E830D09150504038
:100A8000E695001CCAF729D0FE2F27D0660F771FE6
:100A9000881FBB1F261737074807AB07B0E809F0C8
:100AA000BB0B802DBF01FF2793585F4F2AF09E3F5D
:100AB000510568F092C0DCC05F3FECF3983EDCF378
:100AC000869577956795B795F7959F5FC9F7880FD6
:100AD000911D9695879597F90895E1E0660F771F28
:100AE000881FBB1F621773078407BA0720F0621BB9
:100AF000730B840BBA0BEE1F88F7E095089504D0B2
:100B00006894B111B5C0089598D088F09F5790F0BF
:100B1000B92F9927B751A0F0D1F0660F771F881F22
:100B2000991F1AF0BA95C9F712C0B13081F09FD061
:100B3000B1E008959CC0672F782F8827B85F39F0FF
:100B4000B93FCCF3869577956795B395D9F73EF481
:100B500090958095709561957F4F8F4F9F4F089529
:100B6000E89409C097FB3EF4909580957095619547
:100B70007F4F8F4F9F4F9923A9F0F92F96E9BB27FD
:100B80009395F695879577956795B795F111F8CF79
:100B9000FAF4BB0F11F460FF1BC06F5F7F4F8F4FE4
:100BA0009F4F16C0882311F096E911C0772321F0DA
:100BB0009EE8872F762F05C0662371F096E8862F72
:100BC00070E060E02AF09A95660F771F881FDAF7C9
:100BD000880F9695879597F9089597F99F6780E80C
:100BE00070E060E008959FEF80EC089500240A947F
:100BF0001616170618060906089500240A941216F8
:100C00001306140605060895092E0394000C11F42A
:100C1000882352F0BB0F40F4BF2B11F460FF04C0D7
:100C20006F5F7F4F8F4F9F4F089557FD9058440F30
:100C3000551F59F05F3F71F04795880F97FB991F3B
:100C400061F09F3F79F087950895121613061406F8
:100C5000551FF2CF4695F1DF08C016161706180685
:100C6000991FF1CF86957105610508940895E89460
:100C7000BB2766277727CB0197F908950BD0C4CF00
:100C8000B5DF28F0BADF18F0952309F0A6CFABCF77
:100C90001124EECFCADFA0F3959FD1F3950F50E05A
:100CA000551F629FF001729FBB27F00DB11D639F1E
:100CB000AA27F00DB11DAA1F649F6627B00DA11DC4
:100CC000661F829F2227B00DA11D621F739FB00D6A
:100CD000A11D621F839FA00D611D221F749F3327DA
:100CE000A00D611D231F849F600D211D822F762F73
:100CF0006A2F11249F5750408AF0E1F088234AF070
:100D0000EE0FFF1FBB1F661F771F881F91505040BB
:100D1000A9F79E3F510570F060CFAACF5F3FECF37B
:100D2000983EDCF3869577956795B795F795E795A7
:100D30009F5FC1F7FE2B880F911D9695879597F9B8
:100D40000895AA1BBB1B51E107C0AA1FBB1FA61712
:100D5000B70710F0A61BB70B881F991F5A95A9F764
:100D600080959095BC01CD010895BB274A3031F4A0
:100D7000992322F4BDE2909581959F4F44C025327E
:100D8000310518F4223008F004C0FA011082CA01BB
:100D90000895BB272A3051F4992342F4BDE290957F
:100DA0008095709561957F4F8F4F9F4F0BC0253277
:100DB000310518F4223008F004C0FA011082CA018B
:100DC0000895BB27FA01A62F6217710581059105C9
:100DD000330B30FB66F0AA27660F771F881F991F19
:100DE000AA1FA21710F0A21B63953850A9F7A05DA7
:100DF000AA3308F0A95DA19336F7B111B19310821F
:100E0000CA0119C0BB27FB015527AA27880F991FC4
:100E1000AA1FA41710F0A41B83955051B9F7A05D29
:100E2000AA3308F0A95DA193009779F7B111B193A6
:100E30001192CB0100C0DC01FC01672F7191772377
:100E4000E1F7329704C07C916D9370836291AE1785
:100E5000BF07C8F30895DC01CB01FC01E199FECF87
:100E600006C0FFBBEEBBE09A31960DB20D92415029
:100E70005040B8F70895E199FECF9FBB8EBBE09A32
:0A0E800099278DB30895F894FFCF71
:100E8A0030302F30302F30300030303A30303A3076
:100E9A0030003062004465627567204170706C6989
:100EAA00636174696F6E00496E69743A0909004F8B
:100EBA0066667365743A090900436F6E74726173EA
:100ECA00743A0900496E74656E736974793A090057
:100EDA00496E697469616C697A696E6720496E70D6
:100EEA007574205369676E616C7300496E69746921
:100EFA00616C697A696E6720416E616C6F672F4415
:100F0A0069676974616C20436F6E76657274657285
:100F1A0000496E697469616C697A696E67205477F1
:100F2A006F205769726520496E74657266616365E0
:100F3A0000496E697469616C697A696E67204469EF
:100F4A0073706C617900496E697469616C697A6958
:100F5A006E67205061747465726E73005374616DAC
:100F6A00703A200054656D70657261747572653AE5
:0E0F7A002000496E74656E736974793A200028
:00000001FF
