:1018000020C03AC039C038C037C036C035C034C037
:1018100033C032C031C030C02FC02EC02DC02CC04C
:101820002BC02AC029C0D3C0E3C0F4C008C139C14D
:1018300049C1C1C089C18BC18DC18FC193C195C13F
:1018400097C111241FBECFE5D4E0DEBFCDBF20E09D
:10185000A6E6B0E001C01D92A137B207E1F710E0A3
:10186000A0E6B0E0ECECFEE102C005900D92A636D9
:10187000B107D9F748D028C3C3CFFC01808190EDD0
:10188000980F9A3080F09FEB980F963040F09FE9C8
:10189000980F9630E0F48295807F805719C082952A
:1018A000807F805715C08295807F12C02FEB290F53
:1018B000263018F4890F875308952FE9290F263011
:1018C00068F4890F87550895890F8053089580E043
:1018D000918120ED290F2A3048F7F6CF08950F9314
:1018E0001F93CF938C01C9DFC82FC8010296C5DFB3
:1018F0002C2F30E0322F2227A901482BCA01CF918B
:101900001F910F910895CF93DF931F92CDB7DEB74C
:10191000F89485B7982F91609BBF82608BBF7894B5
:10192000F1D061E070E082E290E07CD18C0142E293
:1019300050E067EA70E0B8D263E0C801EFD0C801B8
:1019400023D261E070E08DE190E06CD18C014DE13B
:1019500050E06AE870E0A8D263E0C801DFD0C801B7
:1019600013D261E070E08AE090E05CD18C014AE043
:1019700050E060E870E098D263E0C801CFD0C801C1
:1019800003D211E06894BB24B1F80F2EF6E6EF2ED7
:10199000F0E0FF2EF02D0F2EF7E08F2EF02D0F2E02
:1019A000F6E0AF2EF02D0F2EF5E07F2EF02D0F2E4E
:1019B000F3E09F2EF02D1982812F90E0FC013297E9
:1019C000E730F10508F08BC0ED5EF34F099461E05C
:1019D00070E082E090E026D18C0141E06B2DE9D0EF
:1019E000C8014BDFF7018083C801CED1192DE3CFA9
:1019F00061E070E084E090E015D18C0141E064E0AA
:101A0000D8D0C8016CDFF70192838183C801BCD1B3
:101A100014E0D1CF61E070E082E090E003D18C016E
:101A200041E06B2DC6D0C80128DFF7018383C801D0
:101A3000ABD1F701808181115FC01A2DBCCFF701B6
:101A40001081812F90E061E070E0880F991FEAD04B
:101A50006C01612F660F41E0ACD0F701108161E0AD
:101A600070E0812F90E0DED0F7019583848311230D
:101A7000A1F0612C862D90E0F70104811581080FFB
:101A8000191F880F991F8C0D9D1DF7DEF8018083AB
:101A90006394F7018081681668F3C60175D11A2D29
:101AA0008ACF61E070E082E090E0BCD08C0141E040
:101AB0006B2D7FD0C801E1DEF7018683C80164D1B8
:101AC000182D79CFF7018381813021F486818F3FF2
:101AD00009F410E0F70180818111FECF6CCF61E045
:101AE000CE0101964BD0882309F465CF89818A33D2
:101AF00009F061CF1B2D5FCF172D5DCF5D9BFECF12
:101B00008CB9089510BC87E689B982E08BB986E864
:101B100080BD88E18AB980E0F1DF08951F93CF93FB
:101B2000DF93EC01162F8881882329F02196E6DFC8
:101B300089918111FCCF812F90E087309105D0F4FD
:101B4000FC01E65EF34F099480E0D8DF13C08DE01E
:101B5000D5DF10C08AE0D2DF0DC08AE0CFDF8DE094
:101B6000CDDF08C089E0CADF05C080E2C7DF02C060
:101B70008BE1C4DFDF91CF911F9108955F9B0FC070
:101B80005C990FC05B990FC05A990FC02CB1FC0132
:101B90002083613061F4822FB1DF8FEF089580E000
:101BA000089581E0089582E0089583E008958FEF1D
:101BB0000895CF92DF92EF92FF920F931F93CF93EE
:101BC000DF931F92CDB7DEB76C01142FE62EF12CF8
:101BD00081E0E81AF1081E141F04BCF08FEF18C052
:101BE000612FCE010196CADF9FEF980F9E3F80F0D4
:101BF0008F3FB1F78981F60181936F010F5F802FCD
:101C000090E08E159F0564F302C000E0E9CF8FEFEE
:101C10000F90DF91CF911F910F91FF90EF90DF9088
:101C2000CF9008950F931F93CF93DF93869F8001EA
:101C3000879F100D969F100D1124C8010DD0EC0147
:101C4000009721F0A80160E070E027D1CE01DF917C
:101C5000CF911F910F9108950F931F93CF93DF930F
:101C60008230910510F482E090E0E0916F00F091F5
:101C7000700020E030E0A0E0B0E0309719F1408142
:101C800051810281138148175907C8F084179507BD
:101C900069F4109731F012960C93129713961C93D7
:101CA00027C000936F001093700022C021153105EA
:101CB00019F04217530718F49A01BD01EF01DF0133
:101CC000F801DBCF21153105F9F0281B390B243041
:101CD000310580F48A819B816115710521F0FB013A
:101CE0009383828304C09093700080936F00FE0101
:101CF000329644C0FE01E20FF31F8193919322506C
:101D00003109398328833AC020916D0030916E00EB
:101D1000232B41F4209162003091630030936E00D8
:101D200020936D00209160003091610021153105F4
:101D300041F42DB73EB74091640050916500241BDB
:101D4000350BE0916D00F0916E00E217F307A0F4FF
:101D50002E1B3F0B2817390778F0AC014E5F5F4F01
:101D60002417350748F04E0F5F1F50936E004093C5
:101D70006D008193919302C0E0E0F0E0CF01DF912C
:101D8000CF911F910F910895CF93DF93009709F49E
:101D900081C0FC01329713821282A0916F00B09132
:101DA0007000109781F420813181820F931F209160
:101DB0006D0030916E002817390751F5F0936E00D1
:101DC000E0936D0067C0ED0120E030E0CE17DF0743
:101DD00040F44A815B819E0141155105F1F0EA0111
:101DE000F5CFD383C28340815181840F951FC817DB
:101DF000D90759F488819981840F951F02969183A0
:101E000080838A819B81938382832115310529F404
:101E1000F0937000E0936F003DC0E901FB83EA831B
:101E200049915991C40FD51FEC17FD0761F48081CA
:101E30009181840F951F0296E9019983888382819D
:101E400093819B838A83E0E0F0E012968D919C91D0
:101E50001397009719F0FD01DC01F7CF8D919C914C
:101E600011979D012E5F3F4F820F931F20916D00B0
:101E700030916E002817390769F4309729F41092D1
:101E8000700010926F0002C013821282B0936E0035
:101E9000A0936D00DF91CF910895DC0101C06D9397
:101EA00041505040E0F70895DC01CB01FC01E1997D
:101EB000FECF06C0FFBBEEBBE09A31960DB20D928D
:0C1EC00041505040B8F70895F894FFCF4F
:061ECC000000710020007F
:0400000300001800E1
:00000001FF
